:1009F300483A00252D00202000250020202020201B
:100A0300202000543A00432D0043002020202020C2
:100A1300006C69676874206C696D69742069733A46
:100A2300004C782D004C78002E0020004C3A00201A
:080A33002020202020202000DB
:100CF400041500000000043600000000081A00017A
:100D0400000200040008082D00080004000200018D
:060D1400013B01013A0061
:10020F00E510B4020C0512E512C394044003E4F5A3
:10021F0012E510B4030974152512F806752201E5CD
:10022F0010B4040974152512F816752201E515C3CB
:10023F0095164005E51614F515E517C395184005F5
:10024F00E51814F517E5226401704BC2AFE515FDF3
:10025F007C00E4FF120D1B7F057E00120DBBE5161F
:10026F00FD7C007F01120D1B7F057E00120DBBE58B
:10027F0017FD7C007F02120D1B7F057E00120DBB48
:10028F00E518FD7C007F03120D1B7F057E00120D0C
:10029F00BBD2AFE4F5227BFF7A0979F37D017F01B1
:1002AF00120D3F7BFF7A0979F67D057F01120D3F15
:1002BF00E5127014E50FB4010F7BFF7A0979F97D10
:1002CF00037F01120D3F800FE515FB7A00754C027D
:1002DF007D037F01120D9EE512B40114E50FB401E9
:1002EF000F7BFF7A0979F97D077F01120D3F800F90
:1002FF00E516FB7A00754C027D077F01120D9E7B80
:10030F00FF7A0979FC7D097F01120D3F7BFF7A0986
:10031F0079FE7D0A7F01120D3F7BFF7A0A79067DF8
:10032F00017F02120D3F7BDF7D057F02120E937B53
:10033F00FF7A0A79097D067F02120D3FE512B4029A
:10034F0014E50FB4010F7BFF7A0979F97D037F0262
:10035F00120D3F800FE517FB7A00754C027D037F6E
:10036F0002120D9E7BDF7D057F02120E93E512B404
:10037F000314E50FB4010F7BFF7A0979F97D087F2C
:10038F0002120D3F800FE518FB7A00754C027D08B5
:10039F007F02120D9E7BDF7D0A7F02120E937BFF81
:1003AF007A0A790C7D0B7F02120D3F7BFF7A0A7957
:0803BF000E7D0C7F02020D3FD0
:10052A00E510B4020C050EE50EC394024003E4F58F
:10053A000EE510B40311E50E25E02436F80806E6A8
:10054A0018700106753501E510B40411E50E25E0B1
:10055A002436F808E61618700116753501C3E53712
:10056A009539E5369538400DE539153985383670AF
:10057A00021538F537E536F525853728E538F529A2
:10058A0085392CE5356401704BC2AFE525FD7C0049
:10059A007F04120D1B7F057E00120DBBE528FD7C32
:1005AA00007F05120D1B7F057E00120DBBE529FD9C
:1005BA007C007F06120D1B7F057E00120DBBE52C09
:1005CA00FD7C007F07120D1B7F057E00120DBBD23A
:1005DA00AFE4F5357BFF7A0A79147D017F01120DAC
:1005EA003FE50E7014E50FB4010F7BFF7A0A790E0E
:1005FA007D017F02120D3F800E754C05AB37AA367E
:10060A007D017F02120D9EE50EB40114E50FB401BF
:10061A000F7BFF7A0A790E7D097F02120D3F800E49
:10062A00754C05AB39AA387D097F02120D9E7BFFF6
:10063A007A0A79247D067F02120D3F7BFF7A0A79B6
:08064A00287D0E7F02020D3F26
:10091700E541C395185007E541C395175041E54197
:10092700C395184026E518132518FFE433FEC3E5E1
:10093700419FEE6480F87480985008752A05752BDE
:10094700DC800D752A0B752BB88005E4F52AF52B8D
:10095700E541C395175004C2A4800BD2A48007E4D5
:10096700F52AF52BD2A4E544C395165007E544C3F1
:1009770095155013E544C395164002C2B7E544C325
:0C09870095155007C2B622D2B6D2B72296
:10072700C3E5149539E5139538500EC3E51495378D
:10073700E513953640030207E5C3E5149537E5133E
:1007470095365047E53B64017041E53A703DC2AFCD
:10075700F523F524852326852427532703752600AB
:10076700E52725E0242DF808E6F5907F027E0012A4
:100777000DBB0524E52470020523C39466E5239485
:100787000840D1E4F53B753A01D2AFC3E51495397A
:10079700E5139538404BE53A64017045E53B7041F8
:1007A700C2AFF523F5248523268524275327037510
:1007B7002600E52725E0241AF808E6F5907F027E53
:1007C70000120DBB0524E52470020523C39466E5DA
:1007D70023940840D1753B01E4F53AD2AF22E4F502
:0207E70090225E
:100B6400E541C395185029E541C395174022E54452
:100B74009516501CE544C395154015E5149539E5C3
:100B8400139538500BC3E5149537E5139536500388
:060B9400C2B522D2B52219
:100652007BFF7A0979F37D017F01120D3FE544FBAF
:100662007A00754C027D037F01120D9E7BFF7A0A90
:10067200792B7D057F01120D3FE545FB7A00754C14
:10068200017D067F01120D9E7BFF7A0979FC7D07B1
:100692007F01120D3F7BFF7A0A792D7D087F0112BF
:1006A2000D3F7BFF7A0A79067D097F01120D3FE536
:1006B20041FB7A00754C027D0B7F01120D9E7BFF80
:1006C2007A0A792B7D0D7F01120D3FE543FB7A00FB
:1006D200754C017D0E7F01120D9E7BDF7D0F7F0128
:1006E200120E937BFF7A0A790C7D107F01120D3F67
:1006F2007BFF7A0A792F7D017F02120D3F754C052F
:10070200AB14AA137D037F02120D9E7BFF7A0A7936
:10071200287D087F02120D3F7BFF7A0A79327D0A1B
:050722007F02020D3F03
:1003C700120E46E4FF120BCD8F157F01120BCD8F56
:1003D700167F02120BCD8F177F03120BCD8F187F5D
:1003E70004120BCD8F257F05120BCD8F287F0612A8
:1003F7000BCD8F297F07120BCD8F2CE515C39516D3
:100407005038E517C395185031E5159463502BE51F
:100417001694635025E5179463501FE518946350AD
:1004270019E515C394004012E5169400400CE51732
:1004370094004006E51894005054C2AF751528750E
:10044700163C75171575181CE515FD7C00E4FF12A1
:100457000D1B7F057E00120DBBE516FD7C007F019D
:10046700120D1B7F057E00120DBBE517FD7C007F7B
:1004770002120D1B7F057E00120DBBE518FD7C00E7
:100487007F03120D1B7F057E00120DBBD2AFE52542
:10049700FE7C00E42528F537EC3EF536E529FEE439
:1004A700252CF539EC3EF538120DEDD2A3D2A4D2A6
:1004B700B5D2B7D2B6E4F5907FD07E07120DBB1246
:1004C7000EB08F101209937FD07E07120DBB120D4D
:1004D700D47FF47E01120DBB120A3B8E138F14E5F5
:1004E70010B4011BE5117007751101F5128010E5B5
:1004F70011B40108751102E4F50E8003E4F511E566
:100507001114600C14600E2402700D12065280083C
:1005170012020F800312052A120B64120917120721
:0305270027809C8E
:03000B000207E900
:1007E900C0E0C0F0C083C082C0D075D000C000C0D6
:0D07F90001C002C003C004C005C006C00757
:10080600758A66758CFC0509E50970020508C394AE
:1008160014E50894004009750800750900120AF3EA
:10082600050BE50B7002050AC394F4E50A94014032
:1008360012750A00750B00E50F70047F0180027FB8
:10084600008F0F050DE50D7002050CAE0CFF7C0B3D
:100856007DB81201AC8C0C8D0DC3E50D952BE50C06
:0A086600952A5004C2A38002D2A319
:10087000D007D006D005D004D003D002D001D000DC
:0B088000D0D0D082D083D0F0D0E03286
:0A0DBB00EF1FAC0670011E4C600E25
:0C0DC5007548027549C7D549FDD548FAAC
:030DD10080E82295
:060E6E00C2A58F80D2A78F
:080E74007F027EEFDEFEDFFCD1
:010E7C002253
:0A0E8900C2A6120E6EC2A7020E747C
:100D6200CFCDCFCECCCE1201AC7C007D0A1201AC2D
:040D7200ED2430FF3D
:0A0D7600D2A6120E6EC2A7020E7480
:100E0400AE07BE0104ED148006BE0209ED243F4482
:060E140080FF120E89228E
:100E46007F38120E897F0C120E897F06120E897F5B
:040E560001020E89FE
:0A0E9300AC03120E04AF04020D764A
:060D3F008B488A49894A35
:100D4500120E04E4FDAB48AA49A94A8D82758300B9
:0C0D550012016DFF6006120D760D80E9A2
:010D6100226F
:0C0B9A007F0AEA24FFFDE434FFFC7E002B
:080BA6008E4D8F4E8C4F8D50D7
:100BAE007F017E00E4FBEBC39550E54F6480F87443
:0E0BBE008098500AAC4DAD4E12019A0B80E8A3
:010BCC002206
:040D9E008A4A8B4BA7
:100DA200120E04AA4CEAD39400400D120B9AAC4ADC
:080DB200AD4B120D621A80ED39
:010DBA002216
:100A8000120E04C3EA64809480400B7F2B120D7613
:100A90008A568B57800E7F2D120D76C3E49BF55737
:100AA000E49AF556AA55EAD39400400D120B9AAC7D
:090AB00056AD57120D621A80EDDB
:010AB900221A
:040ABA008A5A8B5B6E
:100ABE00120E04AA5CEAD3940040297F10120B9CFC
:100ACE00AC5AAD5BCFCDCFCECCCE1201ACEF540F26
:100ADE00FEC3940AEE5004243080022437FF120D18
:040AEE00761A80D123
:010AF20022E1
:040B2C008A5F8B60F1
:100B3000120E04AA61EAD394004028EA24FFFDE4DF
:100B400034FFFC7F027E00120BA6AC5FAD60CFCD00
:100B5000CFCECCCE1201ACEF54012430FF120D7673
:030B60001A80D226
:010B6300226F
:100D1B008F488C498D4A120EA77FA0120C27120EFA
:100D2B007DAF48120C27120E7DAF4A120C27120E04
:040D3B007D02000332
:020BCD008F484F
:100BCF00120EA77FA0120C27120E7DAF48120C2712
:100BDF00120E7D120EA77FA1120C27120E7D120D81
:0D0BEF00808F497F01120E9D120003AF4957
:010BFC0022D6
:100DED005389F0438901758A66758CFCC28DD28C4E
:070DFD00D2A9D2AFC2B92256
:050EB000E4AF64F564ED
:010EB500221A
:100E1A00E4FF20B1010F20B0027F0220B2027F035B
:050E2A0020B3027F046B
:010E2F0022A0
:100AF300856263120E1A8F62E563B40107E56270C3
:100B030003756401E563B40207E56270037564026B
:100B1300E563B40307E5627003756403E563B40436
:080B230007E56270037564042C
:010B2B0022A7
:090EA700D2A0D2A1C2A0C2A12276
:07000300C2A0D2A1D2A0228D
:020C2700AD0717
:100C2900E4FB74807E00A803088006CEA2E713CEF9
:100C390013D8F8FFEDF582EF558224FF92A0D2A1D7
:060C4900C2A10BBB08DC98
:010C4F002282
:100D8000E4FFD2A0FED2A130A00D7480A806088096
:0D0D900002C313D8FC4207C2A10EBE08E842
:010D9D002233
:0A0E9D00EF24FF92A0D2A1C2A1220F
:0B0E7D00D2A0D2A1A2A0E433FFC2A1CA
:010E88002247
:100E3000120EA77F46120C27120E7D7F01120C277F
:060E4000120E7D0200030A
:100DD400120E30120EA77F46120C27120E7D7F10C2
:090DE400120C27120E7D0200031F
:100A3B00C2AF120EA77F47120C27120E7D120D802C
:100A4B008F48E4FF120E9D120D808F497F01120E0D
:100A5B009D120003E548FE7C00E42549FDEC3EFCBD
:100A6B00E41200B37B9A7A997999783F12001112AC
:040A7B0000ECD2AF0A
:010A7F002254
:100E5A00EF4E600F7D027CEFDCFEDDFCEF1F70F0D1
:030E6A001E80EDFA
:010E6D002262
:100BFD00D2A2C2A27F147E00120E5AD2A220A2FD52
:100C0D007F1BDFFE30A2037F01227F25DFFE20A2A6
:090C1D00037F012220A2FD7F00EB
:010C260022AB
:100C5000E4FFFE30A2FD30A21B7D11DDFE30A2F6C6
:100C6000C374079EFD7401A805088002C333D8FC35
:080C7000420780E20EBE08DB22
:010C78002259
:100C7900E4FFFE30A2FD30A21B7D11DDFE30A2F69D
:100C8900C374079EFD7401A805088002C333D8FC0C
:080C9900420780E20EBE08DBF9
:010CA1002230
:100CA200E4FFFE30A2FD30A21B7D11DDFE30A2F674
:100CB200C374079EFD7401A805088002C333D8FCE3
:080CC200420780E20EBE08DBD0
:010CCA002207
:100CCB00E4FFFE30A2FD30A21B7D11DDFE30A2F64B
:100CDB00C374079EFD7401A805088002C333D8FCBA
:080CEB00420780E20EBE08DBA7
:010CF30022DE
:10099300C2AF120BFD120C508F46120C798F471207
:1009A3000CA28F40120CCB8F42E546F53EE547F58E
:1009B3003FE540F53CE542F53DAE3CAF3D7C007D77
:1009C3000A1201AC8F41AE3CAF3D7C007D0A12019F
:1009D300AC8D43AE3EAF3F7C007D0A1201AC8F4429
:1009E300AE3EAF3F7C007D0A1201AC8D45D2AF22F3
:10000E00020162EC5D046005E859047003020158B8
:10001E00120123580460F6EC4860F2EC7004FDFE09
:10002E00FF22C860DB2481C85009C39860025006C5
:10003E0002015F9850CAF582E9294B4A7005AB82DE
:10004E0002014E75F0007C1A7880C3EF9BEE9AED9C
:10005E0099400DC3EF9BFFEE9AFEED99FDE842F03D
:10006E00DC23ACF0D0E0FFD0E0FED0E0FDAB822090
:10007E00E7101BEB60BAEC2CFCEF33FFEE33FEED1A
:10008E0033FD02013AE803F830E705C0F075F000E1
:10009E00EF2FFFEE33FEED33FD40B830E7C280AAFE
:1000AE0075F020800E75F010800575F0087D007ECD
:1000BE00007F003392D530D503120201EC3340108D
:1000CE00EF33FFEE33FEED33FDEC33FCD5F0ED22D6
:0E00DE00E5F0247EA2D513CC92E7CDCEFF2212
:1000EC00EDD2E7CD33EC3392D524814006E4FFFE0C
:1000FC00FDFC22FCE4CFCECDCC24E0501174FF806B
:10010C00EDC3CC13CCCD13CDCE13CECF13CF047007
:07011C00F030D5DE02020104
:10012300E9D2E7C933E833F892D5EDD2E7CD33EC22
:0701330033FC5002B2D5229B
:10013A00EC30E7100FBF000C0EBE00080DBD000426
:10014A000BEB6014A2D5EB13FCED92E7FD2274FFD2
:10015A00FCFDFEFF22E480F8A2D574FF13FC7D802B
:03016A00E480EF3F
:0300000002088B68
:0C088B00787FE4F6D8FD7581640208D285
:10016D00BB010CE58229F582E5833AF583E0225047
:10017D0006E92582F8E622BBFE06E92582F8E22291
:0D018D00E58229F582E5833AF583E49322AB
:10019A00EF8DF0A4A8F0CF8CF0A428CE8DF0A42E79
:0201AA00FE2233
:1001AC00BC000BBE0029EF8DF084FFADF022E4CC37
:1001BC00F875F008EF2FFFEE33FEEC33FCEE9DEC00
:1001CC00984005FCEE9DFE0FD5F0E9E4CEFD22ED46
:1001DC00F8F5F0EE8420D21CFEADF075F008EF2F90
:1001EC00FFED33FD4007985006D5F0F222C398FD81
:0501FC000FD5F0EA221E
:0E020100C3E49FFFE49EFEE49DFDE49CFC220E
:100897000203C7E493A3F8E493A34003F68001F2AD
:1008A70008DFF48029E493A3F85407240CC8C33362
:1008B700C4540F4420C8834004F456800146F6DF31
:1008C700E4800B0102040810204080900CF4E47EC1
:1008D700019360BCA3FF543F30E509541FFEE49326
:1008E700A360010ECF54C025E060A840B8E493A3ED
:1008F700FAE493A3F8E493A3C8C582C8CAC583CA18
:10090700F0A3C8C582C8CAC583CADFE9DEE780BECF
:010D1A0000D8
:00000001FF
